:020000041000EA
:1008000042550000B20A0000000000000000000095
:1008100000000000000000000000000000000000D8
:020000041000EA
:1008200000480047290800100448854600F008F8F1
:10083000004800478D300010C046C046000200202E
:10084000064C0125064E05E0E36807CC2B430C3C23
:1008500098471034B442F7D3FFF7EAFF840800103A
:100860009408001002E008C8121F08C1002AFAD13B
:1008700070477047002001E001C1121F002AFBD120
:1008800070470000EC33001000020020340000002C
:0408900064080010E8
:020000041000EA
:0417FC0000000000E9
:020000041000EA
:1018000030B50B46014600202022012409E00D4698
:10181000D5409D4205D31D469540491B2546954020
:1018200040191546521E002DF1DC30BDF8B50246B8
:101830004A40D40F42004B0052085B089A4202D241
:101840000246084611464A0023D0C30D4A00DDB2C5
:10185000120EAD1A202D35DA49020126490AF60585
:101860008A19002C00D0524220214F1B1146B9404A
:101870002A411018C20D9A4221D0002C17D0012DF8
:1018800008DCDA05801AD20F8019D207DBB200F02B
:10189000FFF8F8BDDA05801A012340001B06C018C6
:1018A00080185A428018CA0F1043490007E04908BF
:1018B000C2071143DA05801A80194008801800F029
:1018C000DFF8F8BD61000122511A001BF7E7012281
:1018D000D2075140AAE70122D2075040A6E70246AC
:1018E00070B54A40D30FDB0740002DD04A002AD004
:1018F000010E140E000212020919400A520A84183D
:10190000E50104465443000A120A2E045043A41968
:101910004219200CC543AA18120C0125AD03521C14
:10192000521912047F39240400D0521C104301D4F0
:101930004000491EC2B20C06C0092018401C4008D5
:10194000802A02D003E0002070BD4008400000293A
:1019500000DA0020184370BD70B502464A40D50F2A
:1019600040004A00ED0740085208002814D0002A21
:1019700012D0C40DD30D41020120C0055202490A04
:10198000520AE41A091812187D34914201D3641CDA
:1019900000E04900002C01DA002070BD00239142D4
:1019A00001D3891A0343400849000028F7D10029D0
:1019B0000AD0914202D10121C90705E0914201D22A
:1019C000012101E00121C943E005C018401900F0E0
:1019D00057F870BDC217C10F504010B54018CA0764
:1019E0009623002100F054F810BD10B50022962374
:1019F000114600F04DF810BDC20FD207400040085C
:101A00000BD0C10D0723DB01C91840020905400AAC
:101A10001143C20840071143704700200146704738
:101A2000F0B51FB40646002082B00546402401915F
:101A300000901BE0019922460F46304600F03AFA2A
:101A4000049A059B801A994110D3104619462246E4
:101A500000F020FA361A8F4101972246012000211A
:101A6000009F00F017FA38184D4100902046641E80
:101A70000028DFDC019B00982946324607B0F0BD04
:101A8000002904DA401C490001D140084000704799
:101A900070B40024050C05D11024000402D10029E3
:101AA00021D01124050E01D100020834050F01D107
:101AB0000001241D850F01D18000A41C002801DB3A
:101AC0004000641C002908D020252E1B0D46F5403F
:101AD000A14000D001212943084301061B1B000A35
:101AE000DB1D02D5002070BC7047DB05181880187C
:101AF0000029F8DA401C4900F5D170BC40084000CC
:101B000070470000F0B507460846584087B0C00F40
:101B1000049048000E46590040084908BC1A884104
:101B200005D2384631461E4617460B460246580037
:101B3000400810434DD0300D039040055900400D32
:101B4000490D0590401A0290402873DA18030121CC
:101B5000000B09050843019004980092002806D064
:101B60001146019A4942002090410091019002984B
:101B700040210A1A0199009800F08CF905460C469C
:101B80006B4607CB00F0A7F9C0197141039A0E0DFF
:101B90000023D71756401A467A40164344D0049A79
:101BA000002A2DD0029A012A039A15DC1205C01AC8
:101BB000914101263605001C7141D20F059ED207C6
:101BC0000093019202962A46234600F0A4F907B03A
:101BD000F0BD38463146FAE71605234A0F46B218DB
:101BE000C01AB74101210905001C4F4100187F416F
:101BF000114618187941E20F10436D19644113E042
:101C0000E2076D0815436408C2071443039A0126CE
:101C10001205C01A91413605001C7141CE074008DB
:101C200030434908C01851412A46234600F066F95E
:101C3000CDE7FFE7049801224000C117121A0023E4
:101C40008B4104983146C417381AA141EEE730B4ED
:101C50000124E407634030BC54E730B40124E407B6
:101C6000614030BC4EE700000000E0FFF0B51FB45B
:101C700088B00B990998002448400999C00F490081
:101C800049080991C0070B990090490049080B9138
:101C900009990898A64608431CD00B990A9808434E
:101CA00018D0099801244000420D4800410D0998C0
:101CB00024050003000B204309900B980003000B40
:101CC00020430B9050181C494018002201901446E4
:101CD000104605E0002001460DB0F0BD032801DAF2
:101CE000034600E003239C46C11A0AAE0AE05F00E7
:101CF00008ADED5B4F00F75B7D430027AA187C41E0
:101D0000491C5B1E6145F2DD410004AB5A522104BF
:101D1000120C0A43240C401C0828DFDB01980290B7
:101D20000099704601910090059B049A07990698C6
:101D300000F0F1F8D0E700000DFCFFFFF0B50C4615
:101D40005C4085B0E40FE40703944C00002664086F
:101D500059009446490802460296224321D0624621
:101D60000A431ED06200570D4A000E032303550D8F
:101D7000012402462C492405781B1B0B360B401806
:101D800023432643614600901C46501AB44103D3B6
:101D90000098401C009002E0921800985B410028D7
:101DA00003DA0020014605B0F0BD0020012109053D
:101DB0000746864611E064461D46141BB54106D30E
:101DC0006546521BB341744607430C43A646CD07F4
:101DD00040084908284392185B4105460D43EAD163
:101DE0001046184313D060461946504071400843CE
:101DF00006D06046101AB34106D20122002306E045
:101E000000220123DB0702E00122D2435310009895
:101E100074460105381C6141029C039D001969410B
:101E200000F06CF8BFE70000FD0300004A00090362
:101E30000123090B1B0519430A4B10B5520D9A4299
:101E400002DA0020014610BD064B34339A4203DC0F
:101E50009A1A00F02FF810BD034BD21800F01AF8B0
:101E600010BD0000FF030000CDFBFFFF10B50029EF
:101E700004DB0124E40740428C412146002B04DBB3
:101E80001C460123DB075242A341994200D19042F4
:101E900010BD000010B5202A04DB0146203A914015
:101EA000002010BD914020239C1A0346E3401943B3
:101EB000904010BD10B5202A04DB0846203AD040DF
:101EC000002110BD0B46D340D0402024A21A9140DF
:101ED0000843194610BD10B5202A06DBCB1708466B
:101EE000203A1041C1170B4306E00B461341D04086
:101EF0002024A21A91400843194610BD10B5002BAA
:101F000008DA0024401C614192185B411A4301D158
:101F10004008400010BDF0B51FB482B005460C006B
:101F200003D0084600F03AFC02E000F037FC203015
:101F30000246009021462846FFF7ACFF049B059A15
:101F400004460F4618431143084314D01846104363
:101F50001BD0009840210A1A18460599FFF7AAFFDE
:101F600005460E46009A05990498FFF793FF08432B
:101F700005D0012004E02046394607B0F0BD00201E
:101F8000C11705430E432C43374300990E98630550
:101F9000401A7905E40A00220C43FD0A0A3002D5F2
:101FA00000200146E9E70105101969410C9C0D9DCF
:101FB00000196941FFF7A2FFDFE7000030B52125D6
:101FC0004124204730B50D254124204730B50E254A
:101FD0004124204730B50025004C20470104001063
:101FE00030B502254124204730B501254124204742
:101FF00030B554254124204730B551254124204790
:1020000030B552254124204730B55A254124204778
:1020100001460DE0084A00E0521E002AFCDC074A97
:10202000126801231B039A43D218044B1A60491EFD
:102030000029EFDC70470000B80B000000500040A2
:1020400004460120800700684008400001218907FC
:10205000086029E0254619E0012080070068FF217B
:1020600001318843401889050860FF20F530FFF7EB
:10207000CFFF012080070068FF21013188438905D7
:102080000860FF20F530FFF7C3FF6D1E002DE3DC75
:102090007D200001FFF7BCFF04480068012109030F
:1020A0008843401801490860D4E700000050004010
:1020B000002104E000228B00C2504A1CD1B20A2940
:1020C000F8DB002228210A540021C1627047000079
:1020D000F8B504460F462820005D800027502820D0
:1020E000005D401CC1B228200155005D0A2802D1C4
:1020F0000021282001550020E0622820055D0026EF
:1021000013E0002D02DD681EC5B200E00925AA001B
:10211000A158B200074B9858FFF7E1FB0090E16A25
:10212000FFF784FBE062701CC6B20A2EE9DBE06AAE
:10213000F8BD00000802002070B505460E46002ECE
:1021400010D129462448FFF74BFF0446002C09D044
:1021500022A000F001FB8021204600F06DFA0D2046
:1021600000F0F0F929469C20FFF73EFF0446002CC2
:102170000AD027A000F0F0FA8021204600F05CFA97
:102180000D2000F0DFF912E02B46042231218020DF
:10219000FFF71CFF0446042C09D92CA000F0DCFA40
:1021A0008021204600F048FA0D2000F0CBF92A46A5
:1021B0000021C120C001FFF705FF0446002C09D013
:1021C00030A000F0C9FA8021204600F035FA0D2039
:1021D00000F0B8F970BD00008080000020202020B1
:1021E000202D3E4572726F7220647572696E672091
:1021F0004C69625F4D6561735F436F6D705F5465DD
:102200006D702C20737461747573203D2000000084
:1022100020202020202D3E4572726F72206475723E
:10222000696E67204C69625F4D6561735F526177CB
:102230005F416363656C65726174696F6E2C2073B6
:102240007461747573203D20000000002020202060
:10225000202D3E4572726F7220647572696E672020
:102260004C69625F436F6D705F4175746F5F41636E
:10227000635F4F66667365742C2073746174757345
:10228000203D200020202020202D3E4572726F72BC
:1022900020647572696E67204C69625F436F6D7070
:1022A0005F416363656C65726174696F6E2C207346
:1022B0007461747573203D2000000000F8B500269D
:1022C0005648C068C7B256480078C007C00F0028FB
:1022D0007ED15449086008460068C9040843514942
:1022E0000860084600680721C906884340184D4920
:1022F00008600846006800090001001D08600846E3
:102300000068F021884347490860084600680F21AB
:10231000090488430121090440184249086008461D
:1023200000680F21090588433E4908600846406857
:10233000FF21090288433B49486008464068000A7B
:1023400000027F304860084640680002000AFF2112
:10235000090640183349486008464068FF210904CF
:10236000884340182F494860084600682E490843B2
:102370002C490860B01E2949C86040108860890453
:102380004860264800694000400849004018234939
:10239000086100BF21488068C007C00F0028F9D03D
:1023A000204800682049C94308401E490860084683
:1023B0004068000C1D490D1A6E2D01DBB92D00DDA2
:1023C0000226002E22D12C4619480078012800E070
:1023D0001DE004D0022806D003280BD107E0E1203D
:1023E0008001444308E0E1200002444304E0114836
:1023F000444301E0022600BF00BF61080E4A88186E
:102400002146FFF7FDF90D49087000BF00BF0348E2
:10241000C7600020034908603046F8BD0010004046
:10242000000200200050004000010001FFFF0000FA
:10243000040200200077010000A8CB180102002050
:1024400001229207126852085200521C01239B0776
:102450001A601A46126802239A435B071A601A46EA
:1024600012689B159A439B051A601A4612685B1501
:102470009A43D2185B051A602C4A10702C4A1170CE
:102480002A4A1278D207D20F002A23D1012904D078
:10249000022909D0032916D10DE0D022254B1A704C
:1024A000254A264B1A8014E03422224B1A70244A03
:1024B000224B1A800DE01F221E4B1A70FF22783229
:1024C0001E4B1A8005E000221A4B1A701B4B1A8013
:1024D00000BF29E0154A1278D207D20F002A23D074
:1024E000012904D0022909D0032916D10DE0E222E6
:1024F000104B1A70104A114B1A8014E038220D4B01
:102500001A700F4A0D4B1A800DE02222094B1A70E7
:10251000FF227832094B1A8005E00022054B1A7021
:10252000064B1A8000BF00BF704700000002002069
:102530000402002001020020C40900000202002061
:1025400071020000F0B500218C463649CA68D2B24B
:102550009646354B1A78D407344A32D0344C14603E
:102560005D782C022C43314A546054685B881B040C
:102570001C43546095042B6856151C46B4433343E2
:102580000326F643CE602C601568012636063543D7
:10259000156015689615354315600F268E60032566
:1025A0006D0295600A69AF053A430A611F4A956852
:1025B0006D05AD0FFBD00825C6071E4E04D0336055
:1025C00003E01B4CE41CCAE7346040080F268E6011
:1025D0000126760296600E693E430E619668760586
:1025E000B60FFBD06D1E2D062D0EE5D111480360F0
:1025F0000F2088600120400290600869384308611C
:1026000090684005800FFBD09068400501D50120FF
:102610008446002010600320400290607046C8602D
:102620006046F0BD00100040000200200050004055
:10263000010004A800000040F0B505460F46002642
:1026400080203840802803D142A000F085F806465B
:10265000002E01D03046F0BD280F04463034392C0E
:1026600001DDE01DC4B22046FFF76CFF0646002ED8
:1026700001D03046EFE72801000F04463034392CF2
:1026800001DDE01DC4B22046FFF75CFF0646002EC8
:1026900001D03046DFE72802000F04463034392CE1
:1026A00001DDE01DC4B22046FFF74CFF0646002EB8
:1026B00001D03046CFE72803000F04463034392CD0
:1026C00001DDE01DC4B22046FFF73CFF0646002EA8
:1026D00001D03046BFE72804000F04463034392CBF
:1026E00001DDE01DC4B22046FFF72CFF0646002E98
:1026F00001D03046AFE72805000F04463034392CAE
:1027000001DDE01DC4B22046FFF71CFF0646002E87
:1027100001D030469FE72806000F04463034392C9C
:1027200001DDE01DC4B22046FFF70CFF0646002E77
:1027300001D030468FE72807000F04463034392C8B
:1027400001DDE01DC4B22046FFF7FCFE0646304620
:1027500081E700003078000030B50446002507E02E
:102760002078FFF7EFFE0546641C002D00D002E044
:1027700020780028F4D100BF284630BD0FB410B532
:1027800003A9044B044A029800F0DAF810BC08BC14
:1027900004B018477D300010300200202021020CC8
:1027A00001D010211046020A01D010460839020952
:1027B00001D01046091F820801D01046891E420828
:1027C00001D0881E7047081A70470000F0B51FB48A
:1027D00086B00998089A030D0021024314D051488D
:1027E000514A1818504305141198012810981AD00E
:1027F000281A401C00264D4F4D4900960191049027
:10280000002812DA444211E01198012449A301285A
:1028100001D11098C1430698119A84600360C26088
:1028200041600BB0F0BD4042E4E7044621050020C2
:102830003F4A001C51410391029012E0E00707D08B
:1028400032463B4601990098FFF710FA019100903B
:1028500032463B4610461946FFF708FA06460F4631
:102860006410002CEAD10498039B0028029A09996D
:10287000089806DAFFF7FAF9019B009AFFF7F6F9D4
:1028800005E0FFF75BFA019B009AFFF757FA044651
:102890000E460022284BFFF7E9FA03D80020C04378
:1028A000014607E00022254B20463146FFF72AF972
:1028B000FFF7BCFA102409E0002C0ADB0A220023EF
:1028C000FFF7AEF8079B30321A55641E02460A43E2
:1028D000F2D11122641C079B121B1C19119B012BA6
:1028E00003D0012308430ED10AE0084304D011208D
:1028F00010900020119077E71098151A6D1E0BE0CC
:102900001098824202DD00236D1C03E0824201DA4E
:1029100000236D1E002BEED0069811998260C160D5
:1029200030C07EE701FCFFFF104D000000001440A6
:102930000000F03F300000000000F0430000E03FE6
:10294000FFB597B0064600251BE2252876D1002466
:102950002746F749049400E00443761C32780120AE
:10296000203A90400842F7D130782A280ED002222F
:10297000307801463039092916D804990A23594379
:10298000303940181443761C0490F1E7189802C8B7
:1029900004911890002904DA0120400304434842BE
:1029A000049002200443761C30782E2814D1042091
:1029B00004437078761C2A2809D11898761C80C8A0
:1029C000189009E00A214F43303FC719761C307830
:1029D000014630390929F5D930786C2810D006DC49
:1029E0004C281AD068280ED06A2817D104E0742821
:1029F00013D07A2812D110E00120400504430CE0E6
:102A00000121090501E0032109050C437178814288
:102A100003D1012000052418761C761C3078662826
:102A20000BD013DC58287DD009DC00287BD045284A
:102A3000F6D04628F4D047281AD1A9E118E0632837
:102A400035D0642870D0652812D1A1E170286CD0EF
:102A500008DC6728F1D069287DD06E280DD06F285A
:102A600006D1BCE073282ED0752873D0782859D0B1
:102A70001A9A199990476D1C82E16002400F022852
:102A800009D003280DD00428189801680DD00D60D6
:102A9000001D189074E11898EA1701680D604A60EB
:102AA000F6E7189801680D80F2E70D70F0E71898C6
:102AB0006A4601781172001D18900020507202A819
:102AC0000090012005E0189802C81890002000919D
:102AD000C04361070ED5002101E00199491C019115
:102AE000B94213DA8142F8DB019A0099895C002926
:102AF000F3D10BE0002101E00199491C01918142D1
:102B0000FADB019A0099895C0029F5D101990498B2
:102B10001A9B471A21463846199A00F099FA40192B
:102B2000019903E051E030E115E050E0451807E07D
:102B3000009800990078491C00911A9A19999047B9
:102B40000198401E0190401CF2D1214638461A9B44
:102B5000199A12E137E00A200021009001916002E9
:102B6000410F022907D0189A01CA1892C217944639
:102B7000032908D00AE01898C01DC108C90005C97A
:102B80001891944607E000B2C2179446042902D176
:102B900040B2C1178C4600226146944506DA0A46C7
:102BA0000021404291418C462D2102E0210504D5AF
:102BB0002B216A461173012103E0E10701D0202196
:102BC000F7E7029156E00A200AE0102008E0102002
:102BD00000900021042004430191082703E008200D
:102BE0000021019100906002410F022907D0189A3C
:102BF00001CA189200229446032908D008E01898C8
:102C0000C01DC108C90005C91891944603E080B2EF
:102C1000042900D1C0B20021029121072AD53178C0
:102C20000D91702906D0009A1021019B4A401A4349
:102C300005D00EE040216A461173012108E061468B
:102C4000014306D030216A4611730D995173022158
:102C50000291009A0821019B4A401A430AD1614619
:102C6000014301D1610705D530216A461173012165
:102C70007F1E02913178582904D02EA10E910DA902
:102C80000D910DE030A1F9E76146019B009AFEF736
:102C9000C7FE0E9B8C469B5C0D9A521E0D921370C4
:102CA00061460143F0D10D9805A9081A2030019022
:102CB000600703D501200004844300E00127019848
:102CC000874201DD381A00E0002001990090411888
:102CD000029809180498401A0490E00306D421468B
:102CE0001A9B199A049800F0B3F94519002706E0D9
:102CF00003A81A9AC05D199990476D1C7F1C029811
:102D00008742F5DBE0030CD521461A9B199A0498FB
:102D100000F09EF9451904E01A9A3020199990475D
:102D20006D1C0099481E00900029F5DC1FE0000092
:102D30000928010030313233343536373839616291
:102D40006364656600000000303132333435363755
:102D50003839414243444546000000000D980D9922
:102D60000078491C0D911A9A199990476D1C019988
:102D7000481E01900029F1DC4DE100F059F9451998
:102D8000761C3078002800D0DFE528461BB0F0BD67
:102D9000600700D406271898C01DC108C9004868FC
:102DA0000A680831C30FDB071891190001D09CA1F4
:102DB00008E0210501D59BA104E0E10701D09AA11B
:102DC00000E09AA14300109130785B0865280CD090
:102DD00006DC452809D046281DD0472841D141E0CE
:102DE000662818D067283CD13CE00021112F01DB78
:102DF000112000E0781C0191009008A911A8FFF7AC
:102E0000E5FC139905910021119A15927F1C1298E7
:102E10000197009150E00120C0070390012001902C
:102E200008A9009711A8FFF7D1FC139A14990592ED
:102E30000022119B009212981593059A0192002985
:102E400001D0104602E0791C40180190381A01D5D3
:102E5000019804E04042401E0090781C0190C01B85
:102E6000029043E0012F00DA01270021112F01DD3C
:102E7000112000E038460191009008A911A8FFF741
:102E8000A5FC13990591119A0021129815920091B1
:102E9000019721070CD40599B94201DB019900E0A3
:102EA0000191012904DD159A491E515C302906D093
:102EB000B84201DA011D05DA0121029115E00199FC
:102EC000491EEDE7002805DC0099411800910199A1
:102ED000091A03E0019A411C914200DD0191009919
:102EE000401A401C02900120C0070390200706D41E
:102EF00002990198814202DB0020C0430290002029
:102F00006946C87707AF012103980337C90788428C
:102F100024D0022011902B201290039800280CDA64
:102F2000404203902D20129007E00A210398FEF7FB
:102F300067FC30317F1E039039701199481E119043
:102F40000029F2DC03980028EFD1791E129808704E
:102F50003078202108404530BF1E387006A8C01BBD
:102F6000C01D039010980078002800D0012001991E
:102F700041180298C0170918039809180498401AB4
:102F8000401E0490E00306D421461A9B199A049827
:102F900000F05EF8451910980078002803D01A9ABE
:102FA000199990476D1CE00324D521461A9B199A64
:102FB000049800F04DF845191CE00098002807DB44
:102FC00000990598884203DD1598405C199901E045
:102FD000199930201A9A904700986D1C401C009057
:102FE0000298401E0290002804D11A9A2E201999A6
:102FF00090476D1C0199481E01900029DDDC05E019
:1030000038781A9A7F1C199990476D1C0399481EAD
:1030100003900029F4DC21461A9B199A0498ACE627
:103020002D0000002B000000200000000000000028
:10303000F8B5044600251E461746880404D405E06A
:1030400039462020B0476D1C641EF9D52846F8BDCE
:10305000FFB50446002581B01E46C80301D53027C0
:1030600000E02027880404D505E038460399B047DE
:103070006D1C641EF9D5284605B0F0BD30B5044678
:103080000D46E0B2FFF75EFA204630BDF0B587B0DE
:103090000120800740680002C00F00287ED0012078
:1030A00080078168CB488843FF21013108434901EB
:1030B000401849000843490040180690C80340687A
:1030C000069908400446E007C00F002802D00120FE
:1030D00081074860FE202040002818D0012080078A
:1030E0004068012080074068012080074068012077
:1030F0008007406801208007406801208007406801
:10310000012080074068FE20012189074860FF20D8
:103110000130204000284AD0FF200130810548605E
:1031200001210020FFF78CF914211020FEF764FF25
:103130000746002F02D00120FEF782FFFFF7BEF8FE
:103140000646002E02D00420FEF77AFFFEF758FF55
:103150000746002F02D00320FEF772FF002104A8CB
:10316000FEF7EAFF6946488AFEF73FFC0190FEF74A
:1031700043FC02460B460391029097A0FFF7FEFA2C
:103180006946488AFEF731FC014603909348FEF7F2
:103190009FFF9249C86AFEF72FFC00E095E00246C7
:1031A0000B46039102908EA0FFF7E8FA00BF0120C2
:1031B00040022040002847D00120400241054860DD
:1031C00001210020FFF73CF914211020FEF714FF25
:1031D0000746002F02D00120FEF732FFFFF76EF8FE
:1031E0000646002E02D00420FEF72AFFFEF708FF55
:1031F0000746002F02D00320FEF722FF23E0002124
:1032000004A8FEF799FF6A461020105EFEF7E2FB65
:103210008321C9050090FEF79FFB0190FEF7ECFBB0
:1032200002460B46039102906DA0FFF7A7FA7D209E
:10323000C000FEF7EDFE6C480068012109038843D9
:10324000401869490860DAE701204003204000285F
:1032500003D0012040034104486001208003204046
:10326000002803D001208003010448600120C0032E
:103270002040002803D00120C003C1034860012082
:103280008007456801468A680721890291430D40FD
:10329000002D19D000152840002803D001208002FD
:1032A000010548600120C0022840002803D0012009
:1032B000C002C1044860012000032840002803D058
:1032C00001200003810448607DE0012080078068C0
:1032D00001214907884340184900886008468068F2
:1032E00088434018886008468068400040084900CC
:1032F000401849088860084640680003C00F00284D
:103300005ED03648FEF7D4FE14211020FEF774FE7E
:10331000C4B2002C02D00120FEF792FE002107204B
:10332000FEF758FEC4B2002C02D00220FEF788FE41
:10333000FEF766FEC4B2002C02D00320FEF780FE2A
:103340000120FEF73BFEC4B2002C02D00C20FEF799
:1033500077FE0120FEF74CFEC4B2002C02D00D20F7
:10336000FEF76EFE01208007006801218906884370
:103370004018090108600846006804218843001DC0
:1033800009070860084600680915884340180905C0
:10339000086008460068091388434018090308605C
:1033A0000846806849158843490588600846806852
:1033B00009148843090488600020C043486002E083
:1033C0000420FEF73DFE0020FEF71EFE002007B0A1
:1033D000F0BD0000FF03000025662C000000003057
:1033E0002531660D0A00000000500040000000007A
:1033F00000000000CDCCCC3DCDCCCC3DCDCCCC3DE7
:10340000CDCCCC3DCDCCCC3DCDCCCC3DCDCCCC3D34
:10341000CDCCCC3DCDCCCC3DCDCCCC3D00000000C6
:020000041000EA
:0453FC0000000000AD
:0400000510000829B6
:00000001FF
